:100000000C94B01C0C94E11C0C94E11C0C94E11CAD
:100010000C94E11C0C94E11C0C94E11C0C94E11C6C
:100020000C94E11C0C94E11C0C94E11C0C94E11C5C
:100030000C94E11C0C94E11C0C94E11C0C94E11C4C
:100040000C94E11C0C944CDE0C94E11C0C94E11C0F
:100050000C94E11C0C94E11C0C94D5F50C9403B8A1
:100060000C94E11C0C94723D0C943D3D0C94E11CED
:100070000C94E11C0C94E11C0C94E11C0C94E11C0C
:100080000C94E11C0C94E11C0C94E11C0C94E11CFC
:100090000C94E11C0C94E11C0C94E11C0C94E11CEC
:1000A0000C94E11C0C94E11C0C94E11C0C94E11CDC
:1000B0000C94E11C0C94E11C0C94E11C0C94E11CCC
:1000C0000C94E11C0C94E11C0C94E11C0C942D3458
:1000D0000C94F8330C94E11C0C94E11C0C94E11C7E
:1000E0000C94E11C6034703481348C349434AB341F
:1000F0009834AB349C34A034AB34A634A53DB53D24
:10010000C63DD13DD93DF03DDD3DF03DE13DE53D14
:10011000F03DEB3D7C617F61836186618961B36104
:100120008D619061946197619A619E61A161A46102
:10013000B361A861AB61AE61006235626862A162C1
:10014000DA62816513634A638163BA63F3632C6483
:1001500065649E648165D76410654965C19BA49BF5
:10016000A79BC49BAA9BAD9BB09BBC9BB39BCF9B07
:10017000B69BB99B2AF4F4F4F9F40CF511F524F5C7
:1001800030F51AF426FA95F8CEF862FACEF8CEF8E1
:10019000CEF8CEF8CEF8CEF8CEF8CEF8CEF8CEF82F
:1001A000CEF8CEF8CEF8CEF8CEF8CEF8CEF8CEF81F
:1001B000CEF8CEF8CEF8CEF8CEF8CEF8CEF8CEF80F
:1001C0005CFACEF8CEF8CEF8CEF8CEF8CEF8CEF86F
:1001D000CEF835FACEF8CEF8CEF8CEF8CEF8CEF886
:1001E000CEF8CEF8CEF8CEF879FACBF87402CA027F
:1001F0006A0268023402A80166011203CE01BE0140
:10020000D2019C0258019002A8010A02FA01A6013B
:1002100064024C016E019402BC02FE0230028601AF
:100220001C0200036602C401AC02A401FE028E019E
:1002300036024202084AD73B3BCE016E84BCBFFD6A
:10024000C12F3D6C74319ABD56833DDA3D00C77FA6
:1002500011BED9E4BB4C3E916BAAAABE000000803F
:100260003F05A84CCDB2D44EB93836A9020C50B9CE
:10027000918688083CA6AAAA2ABE000000803F00FA
:100280000C9495F80C940FCB0C94BDCA0C9490610F
:100290000C94C63D0D94AE030D94E9110C9495B5E4
:1002A0000C943A960D94A2030C942E960C94F03D67
:1002B0000D94080D0C940CB00C94A8610D941F388B
:1002C0000C948D610C9458680C9460340D94EC0C73
:1002D0000C945C680C94745B0C9436F00D94EE11E5
:1002E0000C942F4C0C9497730C94E53D0C94A79BA5
:1002F0000C9481650C9468620C9477FE0C949A615E
:100300000C94704C0D9455000C94B3610D94141220
:100310000C9450510C94CD970C94F1590D945D129E
:100320000C94F4F40C94BFB70C949E640C94DD3DD3
:100330000C94F2930C9494340D94A8030C9462FAE8
:100340000C949BB50C94ADB50D9453120D941A0DED
:100350000D941F0D0C9465B00C947F610C9417B331
:100360000C94DCCA0C94C4C80C9494960C94B09B66
:100370000C943F680C948C340C94265D0D94FA0C0C
:100380000C9470340C94A1610D943A120C94D13DEC
:100390000C941ACB0C94035A0C949E610D94F60C99
:1003A0000C9481630D94FE0C0C9489610C949C3424
:1003B0000C94CA570D944A190C94AAB00C941FF8C7
:1003C0000C945CFA0C94AC930C94DECA0C94CEB7EB
:1003D0000C94BC9B0C9443680C94AB340C943696F0
:1003E0000C946D5B0C94C0CE0C9432960C9452B06D
:1003F0000C9483610D94160D0C9411CB0C94BA637C
:100400000C94D63E0C940CF50C947C610C94F85929
:100410000C9481340D94120D0C94A1B50C94269675
:100420000C94DA620C9400620C9422960C94E6937D
:100430000C94FE570C9422F80D941C120C948661B7
:100440000C942A960C94B3B50C941E960C94965763
:100450000C9491B00C94A0340C941ACF0C94AE610F
:100460000D940C120C9437E80D94E10C0D94671266
:100470000C94E5970D9443010C9499930D945A00B4
:100480000C94C5930D9471120C9465FE0C941EB0DF
:100490000D94BA030C94075A0C944A3E0C945CB524
:1004A0000C9425F80C949C5B0C944D3E0C94946138
:1004B0000C9447680C948FB50C9497610C94A49B92
:1004C0000D94D7360C94FE930D94E4110D943012D4
:1004D0000D94DB0C0D94D70C0C948D540C94D93DD9
:1004E0000C94C3B00C94D7640D94E50C0C94AA9BA7
:1004F0000C94909A0C940D5A0C94DA5D0C9486939B
:100500000C9437B00C9411FE0C94D7B70C94A096B1
:100510000C940DCB0C94B99B0C9471FE0C94AB61B4
:100520000D940C0D0C94AD9B0D94F8110C94A7B583
:100530000C9410650C9467530D94040D0D945F009A
:100540000C94F3630C9489B50C9411F50C940494F9
:100550000C946BB50C94C19B0D9449120C94FEAF96
:100560000C94C7930C9435FA0C94D9970C94E13DF4
:100570000C9424F50C940EB30D9402120C9449655E
:100580000C94C49B0C9469730C94CEF80C94493E63
:100590000C941AF40D94E80C0C9430F50C94D2B031
:1005A0000C94743E0C94B39B0C942C640C94A16238
:1005B0000C9413630C94CBF80C94F8970C941A9643
:1005C0000C943E960D94B4030C94A53D0C9493B3F7
:1005D0000C9499C70C941CCB0C946BFE0C94EB3DC3
:1005E0000C9498340C9426FA0C9435620C94B53D16
:1005F0000C94A4610C947AB50C94F8930D947B122E
:100600000D9426120C942AF40C940BCB0C944A6390
:100610000C94EECE0C94FF590C9420CB0C941ECB72
:100620000C9479FA0D94F00C0C94A6340C9478B0D8
:100630000C94B69B0C9465640C94F9F40D946400CE
:100640000C9418B20D94B8000C94CF9B4E414E49B7
:100650004E495459494E46CDCCCC3D0AD7233C1780
:10066000B7D13877CC2B329595E6241FB14F0A00CD
:100670000020410000C84200401C4620BCBE4CCABD
:100680001B0E5AAEC59D7400407A10F35A00A0723A
:100690004E18090010A5D4E80000E87648170000BD
:1006A000E40B54020000CA9A3B000000E1F505008B
:1006B0000080969800000040420F000000A08601D4
:1006C000000000102700000000E8030000000064A4
:1006D00000000000000A000000000001000000000F
:1006E000002C76D888DC674F0823DFC1DFAE59E1E4
:1006F000B1B796E5E3E453C63AE651997696E8E653
:10070000C28426EB898C9B62ED407C6FFCEFBC9C25
:100710009F40F2BAA56FA5F490055A2AF75C936B37
:100720006CF9676DC11BFCE0E40D47FEF520E6B5F2
:1007300000D0ED902E0300943577050080841E08CC
:100740000000204E0A000000C80C333333330F98EA
:100750006E12831141EF8D2114893BE65516CFFEB1
:10076000E6DB18D1844B381BF77C1D901DA4BBE43D
:1007700024203284725E228100C9F124ECA1E53D7F
:1007800027434F4D4D554E49434154494F4E004428
:10079000525952554E004552524F525300494E46FF
:1007A0004F004543484F00536C6565702E2E2E0058
:1007B000496E76616C696420736C6F742E20546F7F
:1007C00074616C3A20310A00526573746F72696EFD
:1007D0006720706F736974696F6E205300436C6992
:1007E000636B20746F20526573756D652E2E2E001D
:1007F0004E6F204D6F76652E00456E642066696CE5
:1008000065206C6973740A00426567696E206669C9
:100810006C65206C6973740A004E6F206D656469A5
:10082000610A0044656C6574696F6E206661696C6D
:1008300065642C2046696C653A200046696C652029
:1008400064656C657465643A005072696E742074F6
:10085000696D653A2000496E76616C696420506963
:100860006E204D6F64650A006F6666004445425510
:10087000473A004D31313320530050533A300A008B
:1008800050533A310A0054656E6C6F672044332030
:1008900050726F20772F20506F7765726C6F737373
:1008A00020526573756D65204F46462E00434841C2
:1008B0004D4245525F54454D504552415455524565
:1008C00000424142595354455050494E470041520D
:1008D0004353004D4F54494F4E5F4D4F44455300D5
:1008E000544845524D414C5F50524F544543544932
:1008F0004F4E004C4F4E475F46494C454E414D458B
:10090000004155544F5245504F52545F53445F532A
:100910005441545553005344434152440050524FA4
:100920004D50545F535550504F525400454D455211
:1009300047454E43595F504152534552004341533E
:10094000455F4C494748545F4252494748544E45D9
:10095000535300544F47474C455F4C494748545305
:1009600000534F4654574152455F504F5745520030
:100970004255494C445F50455243454E54004C4506
:1009800056454C494E475F44415441005A5F5052CE
:100990004F42450052554E4F5554004155544F4C0F
:1009A0004556454C005052494E545F4A4F42005004
:1009B000524F4752455353004155544F5245504FA3
:1009C00052545F54454D5000564F4C554D4554526E
:1009D00049430042494E4152595F46494C455F5494
:1009E00052414E534645520053455249414C5F587F
:1009F0004F4E5F584F4646004649524D574152456B
:100A00005F4E414D453A4D61726C696E206275676B
:100A10006669782D322E302E7820284E6F7620325F
:100A20003220323032302031393A32373A323829B6
:100A300020534F555243455F434F44455F55524CF9
:100A40003A68747470733A2F2F6769746875622EF0
:100A5000636F6D2F4D61726C696E4669726D77615F
:100A600072652F4D61726C696E2050524F544F4326
:100A70004F4C5F56455253494F4E3A312E30204D20
:100A8000414348494E455F545950453A54656E6C50
:100A90006F672044332050726F20772F20506F777C
:100AA00065726C6F737320526573756D6520455860
:100AB0005452554445525F434F554E543A32205597
:100AC0005549443A63656465326132662D3431615B
:100AD000322D343734382D396231322D6335356358
:100AE00036326633363766660A002F2F6C75783AD1
:100AF0004D31313720002F2F20004D313435205318
:100B00003C696E6465783E206F7574206F66207254
:100B1000616E67652028302D31290A00206C696DCF
:100B20006974656420746F2000204D617820003F57
:100B30004A206F7574206F662072616E6765202889
:100B4000302E303120746F20302E33290A00465267
:100B50003A0020466C6F773A200050726F746563DC
:100B60007465642050696E0A0020643A0020693A76
:100B70000020703A0020653A006469730043290A36
:100B80000061626C656420286D696E2074656D700B
:100B90002000436F6C6420657874727564657320FF
:100BA000617265200046696C616D656E74207275B6
:100BB0006E6F757420004F666673657473204170A4
:100BC000706C696564004572723A20546F6F2066DC
:100BD00061722100546F6F206661722066726F6DC2
:100BE000207265666572656E636520706F696E74EC
:100BF0000A00454550524F4D204F4B0A00205A32B3
:100C00003A004475616C20456E6473746F702041C6
:100C1000646A7573746D656E7420286D6D293A2051
:100C200000446F6E65207072696E74696E6720662D
:100C3000696C650A004D3737004D333100A2079DBE
:100C40000796078F0781074572726F722077726966
:100C500074696E6720746F20454550524F4D210ACC
:100C60000053544F505045442E20005072696E740A
:100C700065722073746F707065642064756520748C
:100C80006F206572726F72732E20466978207468C7
:100C900065206572726F7220616E642075736520C5
:100CA0004D39393920746F20726573746172742EF6
:100CB000202854656D706572617475726520697362
:100CC0002072657365742E205365742069742061E9
:100CD000667465722072657374617274696E6729D7
:100CE0000A004E6F20436865636B73756D207769EA
:100CF0007468206C696E65206E756D6265722C205B
:100D00004C617374204C696E653A200063686563BA
:100D10006B73756D206D69736D617463682C204C05
:100D2000617374204C696E653A20004C696E6520D1
:100D30004E756D626572206973206E6F74204C6110
:100D40007374204C696E65204E756D6265722B312F
:100D50002C204C617374204C696E653A20004D3133
:100D600031300053442072656164206572726F7285
:100D70000A002F2F6C75783A706F7765725F706913
:100D80006E0A002121204B494C4C2063617573652C
:100D90006420627920746F6F206D75636820696EBE
:100DA0006163746976652074696D65202D206375B3
:100DB0007272656E7420636F6D6D616E643A2000AF
:100DC000627573793A2070617573656420666F721D
:100DD00020696E7075740A00627573793A207061CB
:100DE0007573656420666F7220757365720A0062A0
:100DF0007573793A2070726F63657373696E670AF1
:100E0000004D656469612052656D6F766564004DC3
:100E10006564696120496E736572746564004D365E
:100E200030300036372603023C3D380E2E303E125D
:100E30001324221E414240393A3B1A1C180B054527
:100E40000A054328080905084400010A537461741F
:100E5000733A2046696C616D656E742075736564C4
:100E60003A20002C204C6F6E67657374206A6F62A5
:100E70003A2000546F74616C2074696D653A2000EB
:100E80002C204661696C65643A20002C2046696E0E
:100E900069736865643A20005072696E74733A2011
:100EA0000053746174733A20004525632025530074
:100EB00042656420436F6F6C696E672E2E2E004270
:100EC00065642048656174696E672E2E2E00236468
:100ED0006566696E652044454641554C545F004B3C
:100EE0006420004B6920004B702000504944204191
:100EF00075746F74756E652066696E697368656474
:100F0000212050757420746865206C617374204BC7
:100F1000702C204B6920616E64204B6420636F6EDF
:100F20007374616E74732066726F6D2062656C6F8E
:100F30007720696E746F20436F6E666967757261A2
:100F400074696F6E2E680A00504944204175746FB1
:100F500074756E65206661696C6564212074696DC5
:100F6000656F75740A000A20436C617373696320AE
:100F7000504944200A00204B643A2000204B693A33
:100F80002000204B703A20000A204E6F206F7665BB
:100F90007273686F6F740A002054753A2000204BFA
:100FA000753A2000206D61783A2000206D696E3A14
:100FB000200020643A200020626961733A200050CA
:100FC0004944204175746F74756E65207374617245
:100FD000740A00504944204175746F74756E652021
:100FE0006661696C6564212054656D706572617419
:100FF00075726520746F6F20686967680A005049D0
:1010000044204175746F74756E65005049442041E9
:1010100075746F74756E65206661696C65642120F6
:10102000426164206578747275646572206E756DB6
:101030006265720A004572723A20757466382066DD
:101040006F6E74206E6F7420696E697469616C696B
:101050007A65642E00000C0F00FE07022603BC0117
:101060007FFE08FE08FE05080806000040F0C8885C
:1010700088987810050808060000C0F888888888D5
:1010800088F80505050600012030F830200508081D
:101090000600002070F820202020E0050909060045
:1010A000FF2070A8A8B888887020050606060001F1
:1010B000E08CEA8C8A0A0509090600FFF8A88888EE
:1010C000888888A8F8050A0A0600FE20505050506B
:1010D00088A8A8887003030306000340A040FFFF10
:1010E000FFFFFFFFFFFFFFFFFFFFFFFFFFFFFFFF10
:1010F000FFFFFFFF0000000605FF010707060200D3
:1011000080808080800080030303060105A0A0A0EA
:1011100005060606000050F85050F850050909066B
:1011200000FF2070A8A07028A870200507070600FF
:1011300000C8C8102040989805070706000040A086
:10114000A040A8906801030306020580808003097F
:10115000090601FF204040808080404020030909AB
:101160000601FF8040402020204040800507070600
:10117000000020A8702070A82005050506000120A9
:1011800020F820200203030601FFC0408005010172
:10119000060003F8020202060100C0C005070706A8
:1011A000000008101020404080050707060000706E
:1011B0008898A8C8887003070706010040C040400F
:1011C0004040E0050707060000708808102040F83E
:1011D000050707060000F8081030088870050707A3
:1011E00006000010305090F81010050707060000A8
:1011F000F880F00808887005070706000030408076
:10120000F0888870050707060000F80810102020F5
:101210002005070706000070888870888870050719
:10122000070600007088887808106002050506012E
:1012300000C0C000C0C00206060601FFC0C000C05A
:10124000408003050506010120408040200503037E
:10125000060002F800F80305050601018040204061
:101260008005070706000070881020200020050771
:10127000070600007088B8A8B88070050707060048
:1012800000708888F8888888050707060000F048FD
:1012900048704848F0050707060000708880808085
:1012A0008870050707060000F04848484848F005E0
:1012B0000707060000F88080F08080F80507070621
:1012C0000000F88080F0808080050707060000702D
:1012D000888080988870050707060000888888F84D
:1012E000888888030707060100E04040404040E04E
:1012F000050707060000381010101090600507075A
:101300000600008890A0C0A090880507070600008E
:10131000808080808080F805070706000088D8A8B4
:10132000888888880507070600008888C8A89888E4
:101330008805070706000070888888888870050778
:1013400007060000F08888F0808080050707060007
:101350000070888888A89068050707060000F08854
:1013600088F0A09088050707060000708880700844
:101370008870050707060000F8202020202020059F
:101380000707060000888888888888700507070690
:1013900000008888888850502005070706000088CC
:1013A000888888A8A850050707060000888850206C
:1013B00050888805070706000088885020202020D4
:1013C000050707060000F80810204080F803090907
:1013D0000601FFE080808080808080E005070706AE
:1013E0000000804040201010080309090601FFE0BA
:1013F00020202020202020E00503030600052050A7
:10140000880501010600FEF803030306010580407C
:10141000200505050600007008788878050707068E
:1014200000008080F0888888F005050506000070BF
:10143000808088700507070600000808788888887B
:10144000780505050600007088F08070050707061E
:101450000000304840E04040400507070600FE70AD
:101460008888887808700507070600008080F08863
:101470008888880307070601004000C0404040E01C
:101480000409090601FE10003010101010906005CC
:10149000070706000080808890E090880307070611
:1014A0000100C04040404040E0050505060000D076
:1014B000A8A8A8A8050505060000B0C88888880562
:1014C000050506000070888888700507070600FE7D
:1014D000F0888888F080800507070600FE788888F5
:1014E00088780808050505060000B0C880808005DA
:1014F000050506000078807008F005070706000063
:101500002020F8202020180505050600008888887E
:10151000986805050506000088888850200505059F
:101520000600008888A8A850050505060000885018
:101530002050880507070600FE88888850204080D4
:10154000050505060000F8102040F803090906010A
:10155000FF2040404080404040200109090602FF32
:101560008080808080808080800309090601FF8060
:10157000404040204040408005030306000248A848
:1015800090FF4C6F61642046696C616D656E7420DC
:101590002A004C6F6164206D6D00556E6C6F616444
:1015A0002046696C616D656E74202A00556E6C6F03
:1015B0006164206D6D0046696C2E204469612E20A7
:1015C0002A0046696C2E204469612E004520696E10
:1015D000206D6DC2B30020082046616374002008AE
:1015E000204D6178002008204D696E004175746FB0
:1015F00074656D70005654726176204D696E0056A8
:101600006D696E00566D6178202A00566D617820F4
:101610004500566D6178205A00566D61782059005A
:10162000566D61782058004D6F74696F6E004D38AB
:10163000340054656D706572617475726500504553
:10164000544700504C410050726568656174202415
:1016500000416476616E6365204B202A0046616E0E
:10166000205370656564004D61696E004578747241
:1016700075646572202A004578747275646572001D
:1016800054310053656C656374202A005430004D5A
:101690006F7665205A004D6F76652059004D6F7644
:1016A0006520580044697361626C652053746570ED
:1016B00070657273004175746F20486F6D650047E7
:1016C0003238004D6F76652041786973005072653D
:1016D00068656174202420416C6C005072656865F7
:1016E0006174202420456E64207E00507265686518
:1016F00061742024204265640050726568656174DD
:101700002024207E00436F6F6C646F776E004E6FF5
:101710007A7A6C65207E00466C6F77207E00466C7E
:101720006F770043163E16416363656C65726174A2
:10173000696F6E3A20500050574D3A20202534648E
:101740000020202020434F4D002020206E6F6E2D62
:101750007374616E646172642050574D206D6F64C4
:101760006500202020636F6D7061726520696E7462
:1017700065727275707420656E61626C65640020BC
:1017800020206F766572666C6F7720696E74657263
:101790007275707420656E61626C65640020202033
:1017A0002054494D534B00423A2000413A2000203A
:1017B00020202054434352002020202043533A202D
:1017C000002020202057474D3A2000202020205480
:1017D000494D45520020697320616C736F20746914
:1017E000656420746F20746869732070696E00549A
:1017F000494D45523143000A202E002020506F727F
:10180000743A200047004800000088008A008C00DD
:10181000B300B400000098009A009C00A800AA0041
:10182000AC0028012A012C01440045006E00800014
:1018300081006F00B000B100700090009100710055
:10184000A000A10072002001210173005072696E96
:10185000742041626F72746564004D3235005061CE
:101860007573696E672E2E2E006F70656E00545270
:10187000494747455245440066696C616D656E7421
:10188000007A325F6D696E007A5F6D696E00795F14
:101890006D696E00785F6D617800785F6D696E00CC
:1018A0005265706F7274696E6720656E6473746FD1
:1018B00070207374617475730A0020453A00486F94
:1018C0006D696E67204661696C6564004361703ABA
:1018D0000047322F47332062616420706172616D6E
:1018E00065746572730A00656E7175657565696EFC
:1018F000672022006F6B00526573656E643A2000AA
:10190000286E6F2066696C65290043757272656E7A
:10191000742066696C653A20002569792025696420
:10192000202569682025696D202569730020746F62
:101930006F206C6F6E6720657874727573696F6E57
:101940002070726576656E7465640A0020636F6C42
:101950006420657874727573696F6E207072657635
:10196000656E7465640A00DB0FC93F45BCDA3F8FC2
:10197000B30240FCF0274056946140FE4B9B4084EC
:10198000A5D840E0231841346A5641E8599741648C
:10199000DBD5416E271742B4B75542CE1A9742C8DD
:1019A000AED542B5885A43D40684BFA65FA7BF749C
:1019B00043E0BF10B11AC01C2C58C0E8F697C0B85D
:1019C00049D6C04E4E17C124D355C1802497C1A01B
:1019D000B5D5C1121A17C244AE55C2781797C26C5A
:1019E000ACD5C267885AC352756E6F757420536543
:1019F0006E736F7200554E4C4F41442046494C4126
:101A00004D454E540046494C414D454E54204348A7
:101A1000414E474500436F6E666967757261746930
:101A20006F6E004D37303220542564004D36303013
:101A300020423020542564004D373032203B25644D
:101A4000004D37303120542564004368616E67656E
:101A50002046696C616D656E7400507265686561E1
:101A60007420437573746F6D004261636B004D3673
:101A7000303020423020542569004368616E67652C
:101A80002046696C616D656E74202A00436F6E7428
:101A9000696E7565005075726765206D6F726500BF
:101AA000524553554D45204F5054494F4E533A00DF
:101AB0005052494E54205041555345440020204E29
:101AC0006F7A7A6C653A200053746F7000436861D6
:101AD0006E6765204D65646961004D323100537752
:101AE0006974636820506F776572204F6E004D38BF
:101AF000300053776974636820506F776572204FA8
:101B00006666004D383100526573756D6520507200
:101B1000696E740054756E650053746F7020507256
:101B2000696E74005061757365205072696E74003F
:101B30004E6F204D6564696100496E666F20536386
:101B40007265656E005061726B696E672E2E2E0095
:101B500000005761697420666F720066696C616D80
:101B6000656E74206368616E676500746F207374BE
:101B7000617274005761697420666F720066696CE7
:101B8000616D656E7420756E6C6F616400004E6FE0
:101B90007A7A6C652068656174696E6700506C655F
:101BA00061736520776169742E2E2E000050726576
:101BB000737320627574746F6E00746F2068656152
:101BC00074206E6F7A7A6C650000496E736572746A
:101BD0002066696C616D656E7400616E6420707260
:101BE00065737320627574746F6E00746F20636F19
:101BF0006E74696E7565005761697420666F720056
:101C000066696C616D656E74206C6F616400005074
:101C10007265737320427574746F6E00746F2072F6
:101C20006573756D65207072696E74000057616927
:101C30007420666F72207072696E7400746F207207
:101C40006573756D652E2E2E0000576169742066D0
:101C50006F720066696C616D656E74207075726775
:101C60006500005A325F535445505F50494E005A48
:101C7000325F4D494E5F50494E005A325F454E41EA
:101C8000424C455F50494E005A325F4449525F50C2
:101C9000494E005A5F53544F505F50494E005A5FAF
:101CA000535445505F50494E005A5F4D494E5F5066
:101CB000494E005A5F4D41585F50494E005A5F45AA
:101CC0004E41424C455F50494E005A5F4449525F75
:101CD00050494E00595F53544F505F50494E005980
:101CE0005F535445505F50494E00595F4D494E5F18
:101CF00050494E00595F454E41424C455F50494E58
:101D000000595F4449525F50494E0058325F535466
:101D100045505F50494E0058325F454E41424C4558
:101D20005F50494E0058325F4449525F50494E005F
:101D3000585F53544F505F50494E00585F535445BD
:101D4000505F50494E00585F4D494E5F50494E001C
:101D5000585F4D41585F50494E00585F454E4142D3
:101D60004C455F50494E00585F4449525F50494EC0
:101D700000534453530053445F4445544543545F18
:101D800050494E0050535F4F4E5F50494E004C43F8
:101D9000445F50494E535F5253004C43445F504997
:101DA0004E535F454E41424C45004C43445F5049C1
:101DB0004E535F4437004C43445F50494E535F4499
:101DC00036004C43445F50494E535F4435004C430A
:101DD000445F50494E535F44340048454154455296
:101DE0005F4245445F50494E004845415445525F6B
:101DF000315F50494E004845415445525F305F5075
:101E0000494E0046494C5F52554E4F55545F50491C
:101E10004E0046414E325F50494E0045315F5354AB
:101E200045505F50494E0045315F454E41424C455B
:101E30005F50494E0045315F4449525F50494E0062
:101E400045315F4155544F5F46414E5F50494E000A
:101E500045305F535445505F50494E0045305F4513
:101E60004E41424C455F50494E0045305F44495217
:101E70005F50494E0045305F4155544F5F46414EDB
:101E80005F50494E00444F474C43445F53434B001F
:101E9000444F474C43445F4D4F53490042544E5FBB
:101EA000454E430042544E5F454E320042544E5F11
:101EB000454E31004245455045525F50494E004124
:101EC00056525F53535F50494E004156525F534341
:101ED0004B5F50494E004156525F4D4F53495F5042
:101EE000494E004156525F4D49534F5F50494E0095
:101EF00054454D505F4245445F50494E0054454D56
:101F0000505F315F50494E0054454D505F305F5037
:101F1000494E0054584432005258443200545844F8
:101F200030005258443000202020416E616C6F67B1
:101F300020696E203D2025356C64003C756E7573FC
:101F400065642F756E6B6E6F776E3E004F757470A3
:101F50007574203D2000496E70757420203D20006E
:101F600070726F74656374656420002028412532A7
:101F70006429202000253364200050494E3A200077
:101F8000446F6E652E0A0050756C73696E67202071
:101F90002000556E746F7563686564200053455268
:101FA000564F206E6F74207365742075702E0A0072
:101FB0005761746368696E672070696E730A0065A3
:101FC0006E6473746F70206D6F6E69746F72200031
:101FD0003F284229617564207261746520696D70C3
:101FE0006C61757369626C652E0A002062617564AC
:101FF00020726174652073657420746F2000205313
:10200000657269616C2000204D3932205400204DEA
:10201000393220580020204D61783A200020204D90
:10202000696E3A2000536F667420656E6473746F36
:1020300070733A2000221F00011D1F0101181F119B
:1020400001131F1001081F4500FD1E4300F01E4430
:1020500000E31E3201D61E3301CA1E3401BF1E35F5
:1020600001B41E2501AC1E1F01A41E21019C1E23CC
:1020700001901E3301851E3401751E05016A1E3A4A
:10208000015C1E3B01501E3901401E0501351E1C1E
:1020900001271E18011B1E1A017D1E0901121E05B3
:1020A00001031E0F01F61D0B01E91D0A01DA1D08CF
:1020B00001CE1D1701C21D1901B61D1B01AA1D1D50
:1020C000019A1D07018E1D0601E71E3201DA1E333B
:1020D00001841D2801CE1E3401761D3101711D358C
:1020E00001C31E3501671D37015A1D2601501D020F
:1020F00001461D03013B1D3601301D0301251D2234
:1021000001171D1E010B1D2401011D3D01F41C388A
:1021100001EA1C0E01DF1C3C01D41C0E01CA1C305C
:1021200001BD1C3E01B31C1301A91C12019E1C2EF3
:1021300001931C1201881C42017A1C40016F1C1380
:1021400001631C410153657474696E677320537495
:102150006F726564002062797465733B20637263FB
:10216000200053657474696E67732053746F7265D1
:1021700064202800454550524F4D206461746173BE
:10218000697A65206572726F722E0A002073746F0F
:102190007265642073657474696E67732072657408
:1021A000726965766564202800202863616C637518
:1021B0006C6174656429210A0020213D2000454599
:1021C00050524F4D20435243206D69736D617463CB
:1021D00068202D202873746F726564292000496E71
:1021E0006465783A2000204D61726C696E3D563806
:1021F00031290A00454550524F4D2076657273696A
:102200006F6E206D69736D61746368202845455059
:10221000524F4D3D00416476616E636564205365A5
:102220007474696E6773005A205261697365003275
:102230006E64204E6F7A7A6C65205A00326E64208C
:102240004E6F7A7A6C65205900326E64204E6F7A38
:102250007A6C6520580046756C6C20436F6E747202
:102260006F6C004D3630352053300A4732382058D5
:10227000004D6972726F72656420436F7079004D12
:102280003630352053310A54300A4D36303520531C
:102290003220583230300A47323820580A4731202D
:1022A000583130300A4D36303520533320583230D3
:1022B00030004D3630352053310A54300A47323819
:1022C0000A4D36303520533220583230300A4732EA
:1022D0003820580A473120583130300A4D363035D1
:1022E0002053332058323030004475706C6963617C
:1022F00074696F6E004D3630352053310A54300A00
:102300004D36303520533220583230300A4732387B
:1023100020580A47312058313030004D36303520B2
:1023200053310A54300A4732380A4D36303520537B
:102330003220583230300A47323820580A4731208C
:1023400058313030004175746F2D5061726B004D03
:102350003630352053310A47323820580A47312069
:1023600058313030004E6F7A7A6C65004C6F616482
:102370002053657474696E677300526573746F726D
:10238000652044656661756C74730053746F726583
:102390002053657474696E67730050726568656177
:1023A00074202420436F6E6600546F6F6C20436866
:1023B000616E67650049444558204D6F646500545F
:1023C0006F6F6C204F66667365747300205A3A0015
:1023D00020593A002020506C616E6E65724275661D
:1023E00066657242797465733A20002046726565AD
:1023F000204D656D6F72793A2000436F6D70696C86
:1024000065643A204E6F7620323220323032300A04
:1024100000204C61737420557064617465643A20C7
:10242000323032302D30392D3235207C20417574D8
:10243000686F723A206B6C61636B0A006275676645
:1024400069782D322E302E780A004D61726C696EDB
:102450000020536F667477617265205265736574EE
:102460000A00205761746368646F67205265736562
:10247000740A002042726F776E206F757420526567
:102480007365740A002045787465726E616C205221
:10249000657365740A00506F77657255700A006144
:1024A00075746F25632E67004732385859004D31D7
:1024B000303031006572726F722077726974696EA4
:1024C0006720746F2066696C650A00446F6E652032
:1024D000736176696E672066696C652E0A004D32FD
:1024E0003900456E6473746F707300255320256343
:1024F00020256320256320256300656E6473746F57
:102500007073206869743A200070012C01900127D3
:1025100001B0012201C0011D01F0011801100213D8
:102520000130020E016002090190020401C002FFA5
:10253000000003FA004003F5008003F000D003EB35
:10254000002004E6007004E100E004DC004005D750
:1025500000C005D2004006CD00D006C8008007C3E9
:10256000003008BE00F008B900C009B400B00AAFDE
:1025700000B00BAA00D00CA500000EA000500F9BCD
:1025800000C01096005012910000148C00C01587F6
:1025900000B0178200B0197D00D01B7800001E73B8
:1025A0000040206E0090226900F024640040275F04
:1025B0000090295A00E02B5500102E500020304B7F
:1025C0000010324600E033410090353C00103737B0
:1025D0000070383200A0392D00B03A2800A03B230B
:1025E00000603C1E00103D1900903D1400103E0F8D
:1025F00000703E0A00C03E0500003F0000403FFB67
:10260000FF803FF6FFC03FF1FF7370656369667935
:10261000696E67204458435F4D4952524F524544BA
:102620005F4D4F44452E0A005072696E74657220EA
:102630006D75737420626520696E204458435F4451
:1026400055504C49434154494F4E5F4D4F444520EE
:102650007072696F7220746F200A00416476616E37
:102660006365204B002028302D3130290020766111
:102670006C7565206F7574206F662072616E67657A
:102680000053656E64204D31303820746F206865CA
:102690006174206E6F7A7A6C650A0020496E7661EB
:1026A0006C69642065787472756465722000496E87
:1026B000736572742066696C616D656E7420616EFD
:1026C000642073656E64204D3130380A00507269A1
:1026D0006E7420506175736564006F70656E20665E
:1026E00061696C65642C2046696C653A2000486F0E
:1026F0006D652025732573257320466972737400F8
:1027000054656E6C6F672044332050726F20772FB2
:1027100020506F7765726C6F737320526573756D9F
:10272000652052656164792E005072696E74696E1D
:10273000672E2E2E00220A00556E6B6E6F776E206C
:10274000636F6D6D616E643A202200416D61782087
:102750002A00416D6178204500416D6178205A0062
:10276000416D6178205900416D6178205800412DFC
:1027700054726176656C00412D52657472616374A8
:1027800000416363656C002A2053746570732F6D7C
:102790006D005A2053746570732F6D6D005920536E
:1027A000746570732F6D6D00582053746570732FAE
:1027B0006D6D00496E6974004D34323800496E69A0
:1027C0007469616C697A6520454550524F4D004AE5
:1027D000756E6374696F6E2044657600416363654E
:1027E0006C65726174696F6E0056656C6F636974B5
:1027F000790053657420486F6D65204F6666736578
:102800007473002053697A653A2000534420496E5E
:102810006974204661696C005344206361726420CE
:102820006F6B0A006F70656E526F6F74206661691E
:102830006C65640A00766F6C756D652E696E6974DF
:10284000206661696C65640A004E6F205344206302
:102850006172640A004D3234004D3233202573001A
:1028600046696C652073656C65637465640A00462F
:10287000696C65206F70656E65643A2000454E4452
:1028800020535542524F5554494E450A002220705C
:102890006F73002220706172656E743A2200535586
:1028A00042524F5554494E452043414C4C2074618F
:1028B000726765743A220053756263616C6C204FD5
:1028C000766572666C6F77004578636565646564EC
:1028D000206D617820535542524F5554494E452042
:1028E00064657074683A310A0057726974696E677A
:1028F00020746F2066696C653A2000534420707222
:10290000696E74696E67206279746520004E6F7419
:10291000205344207072696E74696E670A00667293
:1029200065736800646F696E67004E6F77200049B9
:102930006E76616C69642065787472756465720A7C
:1029400000416374697665204578747275646572B8
:102950003A20007C3C3E5E2B3D3F2F5B5D3B2C2AAA
:10296000225C00000040C2000000000000000024C3
:10297000F4D43050C38E20C2A24017828B70111243
:102980007A910D816CD90AA861E108C75866076180
:102990005143061E4B5D05C145A7041A41110409A8
:1029A0003D9803713931034036DB0265339102D41F
:1029B000305402802E1D02632CEE01752AC501B031
:1029C00028A001102781018F2564012B244B01E0F1
:1029D000223401AC211F018D200D01801FFC0084D9
:1029E0001EED00971DDF00B81CD200E61BC60020BC
:1029F0001BBC00641AB200B219A8000A19A0006A30
:102A0000189900D117910040178B00B5168400313A
:102A1000167E00B31579003A157300C7146F00587D
:102A2000146A00EE1366008813630025135E00C766
:102A3000125B006C12570015125400C11151007046
:102A4000114F0021114B00D61049008D1047004650
:102A500010440002104200C00F4000800F3E0042B0
:102A60000F3C00060F3B00CB0E3800930E37005C86
:102A70000E3500270E3400F30D3200C10D310090E9
:102A80000D3000600D2E00320D2D00050D2C00D9EB
:102A90000C2B00AE0C2900850C29005C0C2700359E
:102AA0000C27000E0C2600E80B2400C40B2400A009
:102AB0000B23007D0B23005A0B2100390B2100183A
:102AC0000B2000F80A1F00D90A1E00BB0A1E009D39
:102AD0000A1D00800A1D00630A1C00470A1B002C07
:102AE0000A1B00110A1A00F7091A00DD091900C4AF
:102AF000091900AB091900920917007B0918006336
:102B00000917004C09160036091600200916000A9C
:102B1000091500F5081500E0081400CC081400B8E9
:102B2000081400A4081400900813007D0812006B1C
:102B30000813005808120046081200340811002338
:102B40000811001208110001081100F0071000E040
:102B5000071000D0071000C0071000B0070F00A139
:102B600007100091070E0083070F0074070F006520
:102B7000070E0057070E0049070E003B070D002EF9
:102B8000070E0020070D0013070D0006070D00F9C2
:102B9000060C00ED060D00E0060C00D4060C00C883
:102BA000060C00BC060C00B0060C00A4060B009935
:102BB000060C008D060B0082060B0077060B006CDE
:102BC000060B0061060A0057060B004C060A00427D
:102BD000060A0038060A002E060A0024060A001A11
:102BE000060A001006090007060A00FD050900F4A0
:102BF000050900EB050900E2050900D9050900D027
:102C0000050900C7050900BE050900B5050800ADA6
:102C1000050800A50509009C050800940508008C1E
:102C2000050800840508007C050800740508006C90
:102C3000050700650508005D050700560508004EFC
:102C40000507004705070040050800380507003163
:102C50000507002A050700230507001C05060016C6
:102C60000507000F0507000805060002050700FB21
:102C7000040600F5040700EE040600E8040600E27E
:102C8000040700DB040600D5040600CF040600C9D3
:102C9000040600C3040600BD040600B7040600B124
:102CA000040500AC040600A6040600A00405009B71
:102CB00004060095040500900406008A04050085BA
:102CC000040500800406007A040500750405007000
:102CD0000405006B04050066040500610405005C42
:102CE00004050057040500520405004D0405004882
:102CF000040500430405003E0404003A04050035C1
:102D0000040500300404002C0405002704040023FB
:102D10000405001E0404001A040400160405001132
:102D20000404000D04040009040500040404000068
:102D3000040400FC030400F8030400F4030400F09E
:102D4000030400EC030400E8030400E4030400E0CF
:102D5000030400DC030400D8030400D4030400D0FF
:102D6000030400CC030400C8030300C503030024CC
:102D7000F404D9201BC40C5C0E9804C4095F0265DE
:102D8000077101F405F900FB04B30048048700C192
:102D90000369005803550003034500BE023A00844E
:102DA00002310053022A002902250004022000E417
:102DB000011C00C8011900AF01170098011400841C
:102DC000011300710110006101100051010E004358
:102DD000010D0036010B002B010B0020010B00152B
:102DE0000109000C01090003010800FB000800F3C1
:102DF000000800EB000700E4000600DE000600D833
:102E0000000600D2000600CC000500C7000500C285
:102E1000000500BD000400B9000400B5000400B1C5
:102E2000000400AD000400A9000400A5000300A2F6
:102E30000003009F0004009B00030098000300951E
:102E400000020093000300900003008D0002008B3D
:102E50000003008800020086000200840003008155
:102E60000002007F0002007D0002007B000200796A
:102E70000002007700010076000200740002007278
:102E8000000100710002006F0002006D0001006C83
:102E90000002006A0001006900020067000100668C
:102EA0000001006500010064000200620001006191
:102EB000000100600001005F0002005D0001005C95
:102EC0000001005B0001005A000100590001005898
:102ED0000001005700010056000100550001005498
:102EE0000001005300000053000100520001005196
:102EF000000100500001004F0001004E0000004E94
:102F00000001004D0001004C0001004B0000004B8F
:102F10000001004A0001004900010048000000488B
:102F20000001004700010046000000460001004586
:102F30000000004500010044000100430000004380
:102F40000001004200000042000100410000004179
:102F5000000100400001003F0000003F0001003E72
:102F60000000003E0001003D0000003D0001003C6B
:102F70000000003C0000003C0001003B0000003B62
:102F80000001003A0000003A000100390000003959
:102F90000001003800000038000000380001003750
:102FA0000000003700010036000000360000003647
:102FB000000100350000003500000035000100343C
:102FC0000000003400000034000100330000003332
:102FD0000000003300010032000000320000003227
:102FE000000100310000003100000031000100301C
:102FF00000000030000000300001002F0000002F12
:103000000000002F0000002F0001002E0000002E05
:103010000000002E0001002D0000002D0000002DFA
:103020000000002D0001002C0000002C0000002CEE
:103030000000002C0001002B0000002B0000002BE2
:103040000000002B0001002A0000002A0000002AD6
:103050000000002A000100290000002900000029CA
:1030600000000029000000290001002800000028BD
:1030700000000028000000280000002800010027B0
:1030800000000027000000270000002700000027A4
:103090000001002600000026000000260000002697
:1030A000000000260001002500000025000000258A
:1030B000000000250000002500000025000100247C
:1030C0000000002400000024000000240000002470
:1030D0000001002300000023000000230000002363
:1030E0000000002300000023000000230001002254
:1030F0000000002200000022000000220000002248
:103100000000002200010021000000210000002139
:10311000000000210000002100000021000000212B
:10312000000100200000002000000020000000201E
:10313000000000200000002000000020000000200F
:103140000001001F0000001F0000001F0000001F02
:103150000000001F0000001F0000001F0001001EF3
:103160000000001E0000001E0000001E000000C243
:103170003100001C260000F4190000D80F0000EBFD
:10318000080000C004000075020000400100001F9C
:10319000E020102310249010A011202210241037BA
:1031A000B00840048003001FE020102110231015F8
:1031B0002011202110211031300840048003001F0D
:1031C000E03FF03CF03B701F601EE03DF03BF0380C
:1031D000700FC0078003001FE03FF03EF03CF01A84
:1031E000E01EE03EF03EF03EF00FC007800300A777
:1031F000318F31D731BF313FFFF038007030FC30B4
:1032000020FC102078102030102C00D02E31D02F30
:103210007BD02F7BD02E31D02C00D02030102078C6
:103220001020FC1030FC303800703FFFF03FFFF002
:103230003800703186302387102787902F87D02F52
:1032400003D02030102078102078102030102F0369
:10325000D02F87D027879023871031863038007091
:103260003FFFF01FFFF81FFFF80410400208200284
:103270000820041040082080104100104100082060
:10328000800410400000001FFFF81FFFF82568753C
:103290003A2530326875002568756420253032681B
:1032A000753A25303268750020202020202020002B
:1032B000256C6425636D00544845524D414C2052A5
:1032C000554E4157415900546865726D616C2052EA
:1032D000756E61776179004572723A204D4158549C
:1032E000454D50004D415854454D5020747269670A
:1032F0006765726564004572723A204D494E5445C7
:103300004D50004D494E54454D50207472696767C9
:1033100065726564000A0A0020205A325F4D494EEA
:103320003A0020205A5F4D494E3A002020595F4D07
:10333000494E3A002020585F4D41583A002020580D
:103340005F4D494E3A00202F002040002042403A75
:103350000020403A0020573A00456E636C6F737549
:103360007265003F0043616E63656C005374617267
:1033700074205072696E740043616E6E6F742065C4
:103380006E746572207375626469723A2000022E51
:103390002E004D6F76652025736D6D004D6F76653F
:1033A00020302E316D6D004D6F766520316D6D00D2
:1033B0004D6F76652031306D6D00486F74656E64B9
:1033C00020746F6F20636F6C6400486F74656E6467
:1033D000206F6666736574733A002052004545504D
:1033E000524F4D20496E697469616C697A65640A4F
:1033F0000048617264636F6465642044656661754A
:103400006C742053657474696E6773204C6F6164CB
:1034100065640A003B200046616872656E686569F4
:10342000740043656C73697573004B656C76696EE7
:103430000020204D363033200020204D3431322002
:10344000530046696C616D656E742072756E6F75A0
:10345000742073656E736F723A00546F6F6C2D63D6
:1034600068616E67696E673A005431204C002055E0
:10347000005430204C0046696C616D656E74206CA0
:103480006F61642F756E6C6F6164206C656E67741C
:1034900068733A0020204D3930302054004C696E5A
:1034A00065617220416476616E63653A0020204D4B
:1034B00033303420500020490020204D333031205B
:1034C00045005049442073657474696E67733A000F
:1034D00020460020480020204D3134352053004D37
:1034E0006174657269616C206865617475702070C3
:1034F0006172616D65746572733A0020204D3636D5
:103500003600456E6473746F702061646A757374FD
:103510006D656E743A0020204D3231382054002001
:10352000204D323036205800486F6D65206F66663A
:103530007365743A00204A0020204D323035204215
:1035400000416476616E6365643A20423C6D696E49
:103550005F7365676D656E745F74696D655F7573C4
:103560003E20533C6D696E5F66656564726174658B
:103570003E20543C6D696E5F74726176656C5F6667
:10358000656564726174653E204A3C6A756E635F6E
:103590006465763E0020204D323034205000416377
:1035A00063656C65726174696F6E2028756E6974ED
:1035B000732F7332293A20503C7072696E745F61C8
:1035C0006363656C3E20523C726574726163745F24
:1035D000616363656C3E20543C74726176656C5F18
:1035E000616363656C3E0020204D32303120540011
:1035F00020204D3230312058004D6178696D756D55
:1036000020416363656C65726174696F6E20287513
:103610006E6974732F7332293A0020204D32303393
:1036200020540020204D3230332058004D617869FD
:103630006D756D20666565647261746573202875AB
:103640006E6974732F73293A005374657073207018
:10365000657220756E69743A0020204D323030203A
:10366000530020440020204D3230302054002044AC
:10367000697361626C65640A0046696C616D656EB0
:10368000742073657474696E67733A00203B20552B
:103690006E69747320696E200020204D313439200A
:1036A0000020286D6D290020204732312020202065
:1036B0003B20556E69747320696E206D6D000000AB
:1036C000A0420000A042000040400000C8410000AD
:1036D000C8410000A0420000A0420000464433332D
:1036E000B9423333B942F4010000F4010000640030
:1036F0000000E8030000E80300005072696E7420C7
:1037000066726F6D204D65646961000000210024C0
:103710000027002A002D00300033000101000004C2
:103720000107010A0100002200250028002B002EBD
:10373000003100340002010000050108010B010006
:103740000020002300260029002C002F003200005A
:10375000010000030106010901050505050705082B
:10376000080808020202020A0A0808040404040104
:103770000101010101010103030303030303030426
:103780000707070C0C0C0C0C0C0C0C0202020206B6
:10379000060606060606060B0B0B0B0B0B0B0B01A6
:1037A0000210202008081020401020408002010252
:1037B000010804020101020408102040808040201A
:1037C0001008040201800402018040201008040255
:1037D00001080402010102040810204080010204D3
:1037E000081020408000000A0B02090C0D0E08078B
:1037F00003040100000000000000000000000000C1
:1038000000000000000000000000000000000000B8
:103810000012111000000000000000000000000075
:10382000000000000000000000000043616E6E6FA9
:1038300074206F70656E2073756264697220000079
:10384000004842000048420000804002020400009C
:10385000A0400000A040000000400000AE430080F7
:10386000A2430000AF43FFFFFF5761726E696E67AE
:103870003A20486F6D696E672042756D702044690B
:103880007669736F72203C20310A00506C65617359
:1038900065205265736574005052494E544552205C
:1038A00048414C5445440025533A202553004B4988
:1038B0004C4C45442E20005072696E74657220682D
:1038C000616C7465642E206B696C6C2829206361BF
:1038D0006C6C6564210A006563686F3A004572721A
:1038E0006F723A00486F74656E6420746F6F206366
:1038F0006F6C640A0020436F756E7420583A004D57
:103900003130362050004532004531006265640098
:103910002C2073797374656D2073746F7070656497
:1039200021204865617465725F49443A200048650A
:103930006174696E67204661696C65640048656101
:1039400074696E67206661696C6564004D3131325F
:103950002053687574646F776E00000060025E012A
:1039600011241FBECFEFD1E2DEBFCDBF00E00CBF00
:1039700013E0A0E0B2E0E6E6F2E902E00BBF02C02D
:1039800007900D92A839B107D9F728E1A8E9B3E06B
:1039900001C01D92A132B207E1F71CE1CFEADCE1E0
:1039A00000E006C021970109802FFE010F946A45AF
:1039B000CE3AD10780E00807A9F70F94902F0D9415
:1039C00021490C9400002F923F924F925F926F9288
:1039D0007F928F929F92AF92BF92CF92DF92EF929F
:1039E000FF920F931F93CF93DF93CDB7DEB7A597C9
:1039F0000FB6F894DEBF0FBECDBF8DA32091A203FA
:103A00002AA3FF24F394F092A203809111068D342F
:103A100009F45DC2843511F40C94EA2C873411F05A
:103A20000C94052D20910F06309110062B31310595
:103A300009F48AC094F42430310534F4223031057D
:103A4000B4F537FF28C03FC224303105F1F12531EC
:103A5000310511F40C94072D36C22D33310509F4CC
:103A6000E6C04CF42C31310509F488C02C33310503
:103A700009F498C028C22B35310509F4A1C12C35B1
:103A8000310509F4A2C12A35310509F01CC2109292
:103A9000A1030C94072D8091F10E813011F00C944C
:103AA000072D0E949AB80E94F16B0C94072D80910B
:103AB000F10E813011F00C94072D2230310509F000
:103AC00080E00E949B790C94072D80E50E94776628
:103AD000882329F00E94C4656B017C0103C0C12CBE
:103AE000D12C760183E50E947766882361F00E94DD
:103AF0000C6620E030E04AE754E40F94DD3E0F947A
:103B000000476B017C010F947B1A8091A505811100
:103B100005C060E087EA97E00E9432730F94DD12DF
:103B2000C60ED71EE81EF91E0F94DD12DC01CB0174
:103B30008C199D09AE09BF09B7FD02C00C94072D71
:103B400080E00E943735F0CF0E9462C681110C944C
:103B5000072D8CE0E6E9F2E0DE01119601900D926E
:103B60008A95E1F760E070E080E50E947DBEBE01CD
:103B70006F5F7F4F0E94E9710C94072DA090D415C0
:103B8000909075028091CD158770873011F00C945C
:103B9000282D60E08FE40E94036881110C94072DAA
:103BA0000C94282D60E083E50E949366882341F001
:103BB0000F94D62280EB97E00F94CA210C94072D26
:103BC0008091470290914802A0914902B0914A0227
:103BD0004091430250914402609145027091460227
:103BE00000913F0210914002209141023091420227
:103BF0000093A9031093AA032093AB033093AC0363
:103C00004093AD035093AE036093AF037093B00342
:103C10008093B1039093B203A093B303B093B40322
:103C20008091B50381608093B5030C94072D60E00B
:103C300083E50E949366882341F00F94D62280EB9F
:103C400097E00F94CA210C94072D8091B50380FD55
:103C500002C00C94072D80910D0687FD06C080914F
:103C60000E06837011F40C94072D86E40E9477668B
:103C70008823D9F00E940C666B017C0120E030E0C3
:103C8000A9010F94ED47181684F420E030E040E7D6
:103C900052E4C701B6010F94874660937102709396
:103CA0007202809373029093740260E070E088EC7B
:103CB00097E00F9479226DEBE62E65E1F62E79EA16
:103CC000A72E73E0B72EEFE3CE2EE2E0DE2E18E54E
:103CD000812F0F94B320882371F0F501408051802B
:103CE000628073800E940C669B01AC01C301B2012B
:103CF0000F948D4505C0F6016081718182819381A9
:103D0000F70160837183828393838091340F8823CA
:103D100011F08F3719F480E20E94E7348091340F5C
:103D2000882319F080E20E945A328091340F882350
:103D300011F08F3719F4812F0E94E7348091340FEE
:103D4000882319F0812F0E945A328091340F8823E2
:103D500011F08F3741F4F701608171818281938185
:103D600042E00E94783C8091340F882341F0F701B3
:103D7000608171818281938142E00E9433331F5FB1
:103D8000F4E0EF0EF11C24E0A20EB11C34E0C30EEF
:103D9000D11C1B3509F09CCF8091340F882311F082
:103DA0008F3719F48AE00E94E7348091340F88231A
:103DB00019F08AE00E945A320E94F16B0C94072D90
:103DC0008FE08093A1030C94072D32EB232E32E079
:103DD000332E42E7E42E47E1F42E4FE352E059A39D
:103DE00048A356E6C52E57E1D52E00E010E0F101BC
:103DF00081911F010E947766882309F44AC00E94BE
:103E00000C662B013C01133049F0F6012081318111
:103E1000428153810F948C452B013C01E8A1F9A10B
:103E20002081318142815381C301B2010F948C45BD
:103E30004B015C012DEB37E346E855EB0F94ED4762
:103E400087FD0AC02DEB37E346E855E3C501B40111
:103E50000F94773E1816ECF4133051F440924B0255
:103E600050924C0260924D0270924E0201E011C0DD
:103E7000A5019401F70160817181828193810F9482
:103E80008D45F7016083718382839383812F0F9423
:103E9000001F1F5FF4E0EF0EF11C28A139A12C5F79
:103EA0003F4F39A328A334E0C30ED11C143009F0CE
:103EB0009ECF002321F08BE492E00F94191D0E9405
:103EC000516E0C94072D0E9425C60C94072D00916D
:103ED0000F06109110060637110509F459C70CF0AA
:103EE00005C10C34110509F4D8C30CF071C00A31B6
:103EF000110509F4B4C2C4F50431110509F44CC22A
:103F00008CF40131110509F433C234F40230110587
:103F100008F4F6C10C94E72C0231110509F46AC5C6
:103F20000C94E72C0731110509F46BC29CF40531A0
:103F3000110509F462C20631110511F00C94E72C49
:103F40000E941BD280918613877F806280938613A4
:103F50000C94072D0831110509F468C209311105C7
:103F600009F470C20C94E72C0F31110509F449C310
:103F700084F40C31110509F484C20CF47EC20D31B5
:103F8000110509F486C20E31110509F489C20C9499
:103F9000E72C0A32110509F463C36CF400321105F1
:103FA00009F4ECC20132110511F00C94E72C0E94C7
:103FB000A1740C94072D0B32110509F46AC30B345C
:103FC000110511F00C94E72C0E94B6310C94072DCA
:103FD0000936110509F499C30CF046C002351105E4
:103FE00009F4F8C444F50E34110509F45EC30CF469
:103FF00058C30035110509F4CCC40135110511F081
:104000000C94E72C0E942DF60F949F2E0F948C1A7F
:104010000E94C43168EE73E080E090E00F948D213F
:10402000999AA1981092070D60E086E898E00E94A6
:1040300032730C94072D0535110509F4DFC454F4CF
:104040000335110509F4CEC40435110509F4D2C4B1
:104050000C94E72C0C35110509F4F4C4083611054D
:1040600009F427C30C94E72C0F36110509F4CBC3D0
:104070001CF50C36110511F40C94072D9CF40A362E
:10408000110509F464C30B36110511F00C94E72CEB
:1040900060E080E50E94936660E070E00F941D2A66
:1040A0000C94072D0D36110509F42BC30E3611059E
:1040B00009F48AC30C94E72C0237110509F458C59A
:1040C0005CF40037110511F40C94072D013711052C
:1040D00009F4F0C30C94E72C0337110509F491C5DA
:1040E0000537110509F40FC60C94E72C0D3241E099
:1040F000140711F40C94472A0CF06EC00B3C110508
:1041000011F40C94E02874F50139110509F4C4C6C2
:1041100084F40837110509F4B0C60CF4ABC60937AE
:10412000110509F4B2C60C38110509F4E5C30C9465
:10413000E72C0E3B110509F400C454F405391105B0
:1041400009F41EC70B39110509F4FBC30C94E72CC5
:10415000083C110509F42FC7093C110509F48CC767
:104160000C94E72C093D110511F40C943629B4F494
:104170000D3C110511F40C940B2914F40C9408292E
:104180000E3C110511F40C941929033D110511F091
:104190000C94E72C0E94879E0C94072D0D3D110571
:1041A00011F40C946B2964F40A3D110511F40C947C
:1041B00049290C3D110511F40C944C290C94E72C61
:1041C000023E110511F40C94E6290C32114011F451
:1041D0000C94322A0C94E72C073F91E0190711F454
:1041E0000C94FD2B0CF042C00A39F1E01F0711F4CA
:1041F0000C94072DC4F40F3231E0130711F40C9422
:10420000902B14F40C944C2B003351E0150711F44F
:104210000C94DC2A0039114011F00C94E72C0F9417
:104220007B1A0C94072D043F91E0190711F40C94AC
:10423000F72B6CF40C39F1E01F0711F40C94932B5D
:104240000C3A114011F40C94992B0C94E72C053F77
:1042500031E0130711F40C94FA2B063F114011F0D2
:104260000C94E72C0F9494050C94072D0D3552E017
:10427000150711F40C949C2C0CF50F3392E01907E0
:1042800011F40C941E2C6CF4083FF1E01F0711F49C
:104290000C94052C0C30124011F40C94162C0C9438
:1042A000E72C083532E0130711F40C94212C0B3560
:1042B000124011F40C94242C0C94E72C003A53E097
:1042C000150709F490C17CF40A3992E0190711F43A
:1042D0000C949F2C0438134011F00C94E72C0E948E
:1042E00090BE0C94072D073EF3E01F0711F40C94C9
:1042F000B82C093E134011F40C94C62C0C94E72CF6
:1043000080E50E947766882329F00E94C4656B01CE
:104310007C0103C0C12CD12C760183E50E94776615
:10432000882361F00E940C6620E030E04AE754E404
:104330000F94DD3E0F9400476B017C010F947B1AB4
:104340008091300790913107009721F061E00F9440
:10435000DA2A05C060E08DED97E00E94327340E0FC
:10436000C701B6010E94B13B0E9433C60C94072DD1
:1043700080910B0684FF02C00C94C42E80910D0620
:1043800087FF02C00C94C42E80910E06837011F03A
:104390000C94C42E0C94E82E8091861383FF25C0C4
:1043A00088E098E00F94CA218091861383FF17C09C
:1043B0008DE991E10E9438D78BE1EDE9F1E1DE0171
:1043C000119601900D928A95E1F760E070E0CE01C0
:1043D00001960F947217CE0101960E943DD789EF86
:1043E00097E00F94CA210C94072D0F94DA2289E1EB
:1043F00098E00F94CA210C94072D0E9478D40C9455
:10440000072DE0913007F09131078081882329F052
:10441000803209F410823196F8CF60E08091300745
:10442000909131070E9489D20C94072D0E949231FD
:10443000882321F00E94CAD30E94B6310E9433C65D
:104440000C94072D8091861382FF03C08B7F80938D
:1044500086130E94976F0E9433C60C94072D80919B
:10446000861383FD02C00C94072D83E50E947766B6
:1044700081110C94FD2E0C94072D0E94B4750C94A0
:10448000072D80913007909131070E942CD20C9417
:10449000072D809186138E7F809386130C94072DB1
:1044A0008091861383FD02C00C94072D0E940BC6D9
:1044B0008091861383FD02C00C94072D4091300734
:1044C00050913107BE01645E7F4F80E00E946EC450
:1044D0008C01009711F40C94072D6C8D7D8D198241
:1044E0001C8222E0AC01CE0101960E94E7D9811125
:1044F00002C0F12C14C0CE0101960E94DCC38823B7
:10450000C1F361E0CE0101960E94E3D5009789F3E3
:1045100025EEFC0120831C820F941A13F82ECE0185
:1045200001960E943DD7B801FF20F1F08BE398E09F
:104530000F94B1228091340F882311F08F3719F432
:104540008AE00E94E7348091340F882319F08AE0D2
:104550000E945A3210928213109283131092841385
:10456000109285130C94072D83E298E00F94B122EA
:1045700085E296E20F94CA210C94072D8091861350
:1045800082FD0F947B1A8091861383FD02C00C94E8
:10459000072D60E080E50E940368182F682F809146
:1045A0003007909131070E9489D283E50E94776697
:1045B000882381F00E94D465AB01BC014093821333
:1045C00050938313609384137093851384E491E173
:1045D0000F9440150E94CAD311110C94072D0E940C
:1045E000B6310C94072D209130073091310790910E
:1045F0008613926090938613C9010E942CD20C946A
:10460000072D0E94486F6C8F7D8F8E8F9F8FBE010C
:104610006F5F7F4FCE014C960E94C27360E0CE0167
:1046200001960F94DA2A0F94DA22BE016F5F7F4F52
:1046300089E498E00F94B1228091340F882311F01F
:104640008F3719F48AE00E94E7348091340F882371
:1046500011F40C94072D8AE00E945A320C94072D15
:104660006FEF7FEF80E50E9484668C0197FF02C0A8
:104670000C94072DE82E60E089E40E940368811104
:104680000C940E2F802F0E946D318111BCC60C94AA
:104690000E2F0E94FEA10C94072D0E94976F0C9480
:1046A000072D0F949F2E0C94072D0E94664B0C949F
:1046B000072D8091C30C83FF02C00C94072D0E942C
:1046C00078B9F82E87FF02C00C94072D89E40E9468
:1046D0007766882311F40C94452F0E94E86590E0DA
:1046E0001816190614F481E090E026E0289FF001E6
:1046F000299FF00D1124EF5DF84E008111810C947B
:104700004F2F0E949D4A0C94072D0E9478B9182FB4
:1047100087FF02C00C940C2D84EF98E10F94CA21FE
:10472000812F0E94F4F08091340F882311F08F378D
:1047300019F48AE00E94E7348091340F882311F441
:104740000C940C2D8AE00E945A320C940C2D60E0DF
:1047500080E50E94936681110C94072D81E40F94EB
:10476000B320882349F0E091050FF0E0E555F84EBD
:104770006081062F10E002C00FEF10E089E40E9474
:104780007766882399F00E94E86590E0181619066C
:1047900014F481E090E026E0289FF001299FF00DBD
:1047A0001124EF5DF84E0481158108C083E50E9455
:1047B0007766882319F00E94D4658B01B80180E0E8
:1047C0000F941D2A0C94072D8EE40E94776688238F
:1047D00011F40C94072DE091EE0EF0E0EE0FFF1FA8
:1047E000EE5EF94F008111810E94D465000F111F08
:1047F000000F111FF801EE5DF84F60837183828313
:1048000093830C94072D83E50F94B320882331F014
:1048100060E083E50E9493668093C30C0F94DA22D4
:104820008CE698E00F94CA218091C30C882309F488
:104830003BC0ADE3EA2EACE0FA2E00E010E020E051
:104840008091C30C90E0A0E0B0E0002E04C0B695CB
:10485000A795979587950A94D2F780FF1BC0DD2412
:10486000D394D20E222381F08091340F882311F04B
:104870008F3719F48CE20E94E7348091340F88233B
:1048800019F08CE20E945A32F701859194910F94AD
:10489000CA212D2D0F5F1F4F32E0E30EF11C0530B2
:1048A000110571F60C94A23088E698E00F94CA21A5
:1048B0000C94A23083E50E947766882381F00E94E1
:1048C000E865282F30E02D33310524F48093000271
:1048D0000C94072D8CE3809300020C94072D0F9409
:1048E000DA224091000250E060E070E083E798E057
:1048F0000F94EA210C94A2308091C30C83FF02C074
:104900000C94072D89E40E947766882311F40C9497
:10491000702F0E94E86590E01816190614F481E0E3
:1049200090E026E0289FF001299FF00D1124EF5D13
:10493000F84E628173810C947A2F0E946E480C9419
:10494000072D83E50E947766882311F40C94072DC8
:104950000E94E865182F90E0CD970CF01CE31093AF
:104960009C030F94DD126B017C01212F30E0A8EE37
:10497000B3E00F94FA44C60ED71EE81EF91EC0928B
:104980009803D0929903E0929A03F0929B030C94BF
:10499000072D83E50F94B320882369F08091070DDC
:1049A000882319F080E898E002C08AE798E00F9425
:1049B000CA210C94072D999AA19A81E08093070D42
:1049C0006AEF70E080E090E00F948D210E9433C682
:1049D0000C94072D8091A1038F7D80618093A103AA
:1049E0000C94072D8091A1038F7E80628093A10398
:1049F0000C94072D0E94759F0C94072D83E50F944E
:104A0000B320882311F40C94072D0F94DD126093CA
:104A100094167093951680939616909397160E940D
:104A20000C6620E030E04AE754E40F94DD3E0F943A
:104A3000004760939D0370939E0380939F03909320
:104A4000A003E5C70E9478B987FDE1C790910B06E6
:104A500094FD04C090910D0697FF23C062EB262EB3
:104A600062E0362E7DE4A72E75E1B72E18A28D5F89
:104A7000082F10E0C801880F991F880F991FAC01FB
:104A80004B595A4E4A01C801880F991F880F991F28
:104A9000FC01E758FA4EFCA3EBA38C010E5C184F07
:104AA00009C090910E069370C9F6682F81E00E94AC
:104AB000DC9FADC7F10181911F010E9477668823B9
:104AC00009F44AC0F8A1F33009F03FC00E940C6617
:104AD0002B013C0120E030E040EA51E40F94773EA6
:104AE00087FF2DC0A3019201F40160817181828151
:104AF00093810F9487466B017C019B01AC01EBA174
:104B0000FCA160817181828193810F94DD3EEBA1D4
:104B1000FCA16083718382839383F801608171813A
:104B2000828193810F947C3EA70196010F94DD3E14
:104B30000F940047F8016083718382839383F401AB
:104B4000408251826282738207C00E940C66F50126
:104B5000608F718F828F938FF8A1FF5FF8A324E09D
:104B6000A20EB11CF43009F0A5CF0F94551A4FC70F
:104B700082E50F94B3208823D9F10E94C76B8E0180
:104B80000F5F1F4F80E1F80111928A95E9F780913C
:104B9000DD059091DE05A091DF05B091E0058983E8
:104BA0009A83AB83BC838091E1059091E205A0914B
:104BB000E305B091E4058D839E83AF83B887809130
:104BC000E5059091E605A091E705B091E805898794
:104BD0009A87AB87BC8783E00F94AC1E6D877E8776
:104BE0008F87988BC8010E94ED6D0F94812A0FC7A3
:104BF0008FE392E00E94ED6D8CEF91E10F94512ACA
:104C000006C788EF99E00F94CA2160E088EE99E02A
:104C10000E94BD7E60E083ED99E00E94BD7E61E070
:104C200088EC97E20E94BD7E61E088EC99E00E94EA
:104C3000BD7E61E088EB99E00E94BD7E60E08FEA76
:104C400099E00E94BD7E61E085EA99E00E94BD7E08
:104C500060E08BE999E00E94BD7E61E084E999E023
:104C60000E94BD7E60E08CE899E00E94BD7E60E01D
:104C70008EE799E00E94BD7E60E080E799E00E94A7
:104C8000BD7E61E081E699E00E94BD7E60E083E543
:104C900099E00E94BD7E60E08DE399E00E94BD7EB8
:104CA00061E08CE299E00E94BD7E60E08DE199E0D8
:104CB0000E94BD7E61E086E199E00E94BD7E61E0D8
:104CC00081E099E00E94BD7E61E083EF98E00E9460
:104CD000BD7E61E080EE98E00E94BD7E60E083EDE5
:104CE00098E00E94BD7E61E08EEC98E00E94BD7E5F
:104CF00060E081EC98E00E94BD7E60E08DEA98E083
:104D00000E94BD7E84C68091300790913107009744
:104D100009F494CBFC012081222309F48FCB60E0BD
:104D20000F94DA2A0F94DA228AEE9AE00F94CA21BD
:104D30008091340F882311F08F3731F48091300740
:104D4000909131070E94F33C8091340F882331F019
:104D500080913007909131070E94AE3301E413E057
:104D6000F80181918F01882319F00E945A32F8CFFF
:104D70000091300710913107F80181918F0188234C
:104D800019F00E945A32F8CF8DE00E945A323FC685
:104D9000009130071091310724E08FEFF12C30E0C3
:104DA000215031F1F8019081492F4B7F413421F49A
:104DB00041814133E9F409C09035D1F4F801918182
:104DC00090539A30A8F4892F08C0913421F095347B
:104DD00021F431E002C0FF24F394A8014E5F5F4F3D
:104DE0008A014F5F5F4FF80190819032C9F3D8CFAD
:104DF000E090340F833058F4882321F0813021F47F
:104E000080E003C08FE701C082E08093340F31114E
:104E10000F94DA22FF2021F086EF9AE00F94CA2146
:104E20008091340F882311F08F3719F4C8010E9444
:104E3000F33C8091340F882319F0C8010E94AE33EF
:104E4000F80181918F01882319F00E945A32F8CF1E
:104E50000091300710913107F80181918F0188236B
:104E600019F00E945A32F8CF8DE00E945A32E09237
:104E7000340FCDC50E94FE6ECAC581E080931C0D23
:104E800080931B0D0E943D6FC2C510921C0D1092A5
:104E90001B0D0E943D6FBBC560E070E083E50E9482
:104EA0008466823038F00F94D6228AEF9AE00F940D
:104EB000CA21ADC58C01112788E40E94776688233A
:104EC000E1F00E94E4658A3A910544F00E94E465AD
:104ED0008530914034F40E94E46505C08AEA90E090
:104EE00002C084E091E026E0209FF001219FF00DB8
:104EF0001124EF5DF84E9183808382E40E947766EF
:104F00008823D9F00E94E465059744F00E94E46587
:104F10008D38910534F40E94E46505C085E090E089
:104F200002C08CE890E026E0209FF001219FF00D68
:104F30001124EF5DF84E9383828386E40E947766A6
:104F4000882309F464C50E94E46597FD09C00E94A6
:104F5000E4658F3F910509F034F40E94E46505C0D3
:104F600080E090E002C08FEF90E026E0209FF0010B
:104F7000219FF00D1124EF5DF84E9583848347C582
:104F800083E40E947766882319F0109208173FC5C2
:104F90008BE40E947766882321F081E080930817D4
:104FA00036C586E40E947766882309F430C582E01E
:104FB000809308172CC50E9478B9182F87FD27C544
:104FC00000913D1784E40E947766882309F4A1C705
:104FD0000E940C666B017C0120E030E0A9010F9477
:104FE000773E882309F442C024E01202F001112424
:104FF000EB5CF84EC082D182E282F38220E030E0A6
:10500000A9016091351770913617809137179091EB
:1050100038170F94773E81110CC080E090E0A0EE2D
:10502000BFE38093351790933617A0933717B0934B
:10503000381720E030E0A9016091391770913A17D4
:1050400080913B1790913C170F94773E81110CC0D3
:1050500080E090E0A0EEBFE38093391790933A1779
:10506000A0933B17B0933C1701E053C780E08093B7
:105070003D170F944A19CBC40E9478B987FDC7C465
:1050800042EBC42E42E0D42E812C53E0352E380E54
:10509000F60181916F010F94B320882309F48BC02E
:1050A000F3E08F1202C0932C01C0982C0E940C6672
:1050B0005B017C0180E1E2EAF2E0DE011196019001
:1050C0000D928A95E1F7092D23E0291508F403E0F4
:1050D00010E02DEC3CEC4CEC5DE3B501C7010F9406
:1050E000773E87FF02C00C94B430F801EE0FFF1F2B
:1050F000EE0FFF1F41E050E04C0F5D1FE40FF51F66
:1051000040805180628073809201A301B501C70184
:105110000F94ED47181614F40C94BC309501A701B8
:10512000B501C7010F94773E8823A1F18091340F18
:10513000882311F08F3731F4F801EE54FD4F808150
:105140000E94E7348091340F882331F0F801EE5447
:10515000FD4F80810E945A3289E29BE00F94CA2160
:105160008CED97E20F94CA21A501B7018CE19BE079
:105170000F9431228091340F882311F08F3719F466
:105180008AE00E94E7348091340F882319F08AE086
:105190000E945A3254E0959E80011124035B1A4EFE
:1051A000B501C7010F940047F801608371838283C2
:1051B00093830F94CB198394F4E08F1269CF27C4A3
:1051C0000E9478B987FD23C492EBE92E92E0F92E74
:1051D00000E023E0D22ED80EF70181917F010F94D9
:1051E000B320882389F0033011F41D2D01C0102F46
:1051F0000E940C6624E0129FF0011124E758FA4E39
:1052000060837183828393830F5F043029F7FFC328
:105210000E947F67FCC380910B0681FD7FC6809151
:105220000C0681FD7BC680910D068C7009F076C658
:10523000EEC31FE1E12E1DE0F12E10E088E5810FA5
:105240000F94B320882351F00E940C66F70160830D
:10525000718382839383812F0F94001F1F5FF4E07B
:10526000EF0EF11C133051F70C945F1F8AE50E947A
:105270007766882351F00E940C666093B91570938D
:10528000BA158093BB159093BC1580E00E94A7656A
:10529000BEC30E949F66BBC383E50E9477668823D6
:1052A00031F00E94E4659093080280930702809198
:1052B0000B0690910C06A0910D06B0910E06892B5D
:1052C0008A2B8B2B09F0A3C360910702709108020F
:1052D0008EE49BE067C00E9478B9F82E87FD97C3E3
:1052E00083E50E9477660F2D0F2C000C110B88238D
:1052F00061F10E94E465F801EE0FFF1FE557FD4FD5
:1053000091838083000F111F000F111F98012B5EE6
:105310003D4F7901BC01990F880B990B0F947E3E8C
:105320002AE037ED43E25CE30F94DD3EF801E258FA
:10533000F84E20813181428153810F94DD3EF70187
:10534000608371838283938362C30F94DA22809196
:10535000340F882311F08F3719F485E40E94E73465
:105360008091340F882319F085E40E945A3280918D
:10537000340F882311F08F3721F480E38F0D0E94C2
:10538000E7348091340F882321F080E38F0D0E9451
:105390005A32000F111FF801E557FD4F60817181EE
:1053A00082E59BE00F9479228091340F882311F0DD
:1053B0008F3719F485E20E94E7348091340F8823F7
:1053C00009F4C0C685E20E945A32BCC680E50F943B
:1053D000B320882309F41BC360E070E080E50E94DD
:1053E0008466F82E6FEF7FEF83E50E9484668C0160
:1053F0000196039708F00BC3F7FC09C38F2D0E9499
:105400006D31882339F00F94D6228AE59BE00F9402
:10541000CA21FDC20F947B1A60E08F2D0F947F117B
:105420000F3FFFEF1F0731F00130110571F000E071
:1054300010E00DC08F2D0F94271131E020E0892B53
:1054400009F030E0032F122F02C001E010E08F2D91
:105450000F9427118017910709F4D9C280E00E94A8
:105460003735F5CF64E071E083E50E947DBE8C01A5
:1054700068EE73E080E50E947DBE893823E19207E3
:1054800010F088E893E1B8010E940573C0C260E0A3
:1054900085E40E949366082F823008F086C080E57C
:1054A0000F94B32010E0882371F00E940C6627E16E
:1054B000209FF001219FF00D1124E856F94E6387DB
:1054C00074878587968789E40F94B3208823B9F081
:1054D0000E940C6647E1409F9001419F300D1124CE
:1054E000A9014856594E7A012CEA35EC47E25EE3B1
:1054F0000F94DD3EF7016787708B818B928B84E47C
:105500000F94B3208823B9F00E940C6647E1409FB6
:105510009001419F300D1124A9014856594E7A013E
:105520002CEA35EC47E25EE30F948746F701638B84
:10553000748B858B968B0F94DA22B80185E79BE0FC
:105540000F94792227E1209FC001219F900D112403
:105550008C010856194EF80143855485658576857A
:1055600081E79BE00F9431222CEA35EC47E25EE3C1
:10557000F80167857089818992890F948746AB010C
:10558000BC018DE69BE00F9431222CEA35EC47E21A
:105590005EE3F80163897489858996890F94DD3EFD
:1055A000AB01BC0189E69BE074C00F94D6228FE268
:1055B00099E20F94CA212BC280E50F94B32088236F
:1055C00051F00E940C666093881670938916809340
:1055D0008A1690938B1689E40F94B320882381F068
:1055E0000E940C662CEA35EC47E25EE30F94DD3E48
:1055F00060938C1670938D1680938E1690938F16F1
:1056000084E40F94B320882381F00E940C662CEA76
:1056100035EC47E25EE30F948746609390167093F3
:10562000911680939216909393160F94DA224091DC
:1056300088165091891660918A1670918B1681E7B1
:105640009BE00F9431222CEA35EC47E25EE3609157
:105650008C1670918D1680918E1690918F160F94E6
:105660008746AB01BC018DE69BE00F9431222CEA0A
:1056700035EC47E25EE3609190167091911680914F
:105680009216909193160F94DD3EAB01BC0189E612
:105690009BE00F94312256C583E50F94B320182F59
:1056A000882371F00E9443660F94F94670931E029E
:1056B00060931D0221E0672B09F020E02093520740
:1056C00080E50F94B320882359F020911D0230917A
:1056D0001E02232B11F00E94FC658093520797C194
:1056E000111195C10F94DA2282E99BE00F94CA212F
:1056F00080915207882319F082E49BE102C089E778
:105700009BE00F94CA2160911D0270911E0281E8F6
:105710009BE00F9479228DE79BE00F94CA2177C11B
:105720000E946B4274C180910D06867009F07DC4A1
:1057300093C40E9462C681116AC103E619E22FE395
:1057400032E039A328A3AE014F5F5F4F1A0176E61E
:10575000C72E78E3D72E7A01F8016591759185916E
:105760009491E8A1F9A181909190A190B190F9A3B1
:10577000E8A3A50194010F948C452B013C01F7018E
:10578000608371838283938320E030E040EA51ECB0
:105790000F94ED4787FD0AC020E030E040EA51E475
:1057A000C301B2010F94773E18162CF4F6018491D0
:1057B00018160CF463C4F70181909190A190B190F8
:1057C0007F0120E030E040EA51ECC501B4010F94C4
:1057D000ED4787FD5DC420E030E040EA51E4C501BB
:1057E000B4010F94773E18160CF066C451C40E94A1
:1057F000A2A30DC10F94A2070AC161E083E50E9434
:1058000003688F250F94B80702C181E080930717C2
:105810000E947AA910920717882309F4F8C00F9400
:10582000DA2282EF9BE00F94CA21F1C080918613A7
:1058300082FFEDC0806480938613E9C00E947EA041
:10584000E6C00E94D3B9E3C00E9478B9082F87FD53
:10585000DEC085E50F94B3208823A9F1E02E002E49
:10586000000CFF080E940C664B015C0120E030E058
:10587000A9010F94ED4787FF04C0B7FAB094B7F8B9
:10588000B094C70153E0880F991F5A95E1F79C0126
:10589000275F384E7901F90180829182A282B3821A
:1058A00020E030E046E954E4C501B4010F94ED472F
:1058B00018164CF480E090E0A6E9B4E4F701808388
:1058C0009183A283B3838CE40F94B320882309F4DB
:1058D0009EC0002E000C110B0E940C666B017C0117
:1058E00020E030E0A9010F94ED4787FF04C0F7FAEC
:1058F000F094F7F8F09443E0000F111F4A95E1F798
:10590000075F184EF801C482D582E682F78220E054
:1059100030E046E954E4C701B6010F94ED4718168C
:105920000CF075C080E090E0A6E9B4E4F80184834F
:105930009583A683B7836BC00E9471BF68C08AE558
:105940000E947766882351F00E940C6660932D17A1
:1059500070932E1780932F179093301780910D0618
:1059600087FD55C080910E06837009F050C0DAC3E0
:1059700081E08093F10E1092D00560E083E50E94F3
:105980000368811144C00E94137741C00E94486F90
:105990006D3371058105910520F089E39CE00E943B
:1059A000FA7E85E39CE00E94FA7E1091340F8FE727
:1059B0008093340F81E29CE00F94CA211093340F3E
:1059C0008EE296E190932D0D80932C0D20C00E94C5
:1059D00025C61DC010910F060F94DD12609394161A
:1059E0007093951680939616909397168091050F55
:1059F000181729F060E083E50E94036801C081E088
:105A0000682F812F0E9442DB02C00E9425C6FDA1A3
:105A1000F11102C00E94E4762AA12093A203A59668
:105A20000FB6F894DEBF0FBECDBFDF91CF911F91AF
:105A30000F91FF90EF90DF90CF90BF90AF909F902D
:105A40008F907F906F905F904F903F902F90089530
:105A50000F947B1A0F94DD12609394167093951631
:105A600080939616909397168090050F61E080E0E2
:105A70000E9442DB1092D4158091710290917202C3
:105A8000A0917302B09174028093A5039093A60332
:105A9000A093A703B093A8038091070290910802F6
:105AA0009093A4038093A30384E690E0909308026C
:105AB0008093070281E080931C0D0E943D6F8AE570
:105AC0000F94B320F82E88E50F94B320182F89E5A2
:105AD0000F94B320181356C1F11611F0012F04C012
